:1000000000802020C1020000BD020000BD020000EF
:1000100000000000000000000000000000000000E0
:10002000000000000000000000000000BD02000011
:100030000000000000000000BD020000BD02000042
:10004000BD020000BD020000BD020000BD020000B4
:10005000BD020000BD020000BD020000BD020000A4
:1000600000000000BD020000BD0200000000000012
:1000700000000000BD020000BD020000BD02000043
:10008000BD020000BD020000BD020000BD02000074
:10009000BD020000BD0200000000000000000000E2
:1000A000BD020000BD0200000000000000000000D2
:1000B000BD02000000000000BD020000BD02000003
:1000C00010B5064C2378002B07D1054B002B02D02E
:1000D000044800E000BF0123237010BD2801202048
:1000E0000000000098040000044B10B5002B03D062
:1000F0000349044800E000BF10BDC04600000000F6
:100100002C01202098040000402292029A1A924664
:100110007047C046174B002B00D1134B9D46FFF78D
:10012000F3FF00218B460F461348144A121A00F0C1
:1001300095F90E4B002B00D098470D4B002B00D0AB
:1001400098470020002104000D000D48002802D02F
:100150000C4800E000BF00F05DF92000290000F02D
:100160009FF800F041F9C0460000080000000000C0
:1001700000000000008020202801202048012020CD
:100180000000000000000000002243088B4274D3EE
:1001900003098B425FD3030A8B4244D3030B8B4288
:1001A00028D3030C8B420DD3FF22090212BA030C91
:1001B0008B4202D31212090265D0030B8B4219D372
:1001C00000E0090AC30B8B4201D3CB03C01A524192
:1001D000830B8B4201D38B03C01A5241430B8B42DA
:1001E00001D34B03C01A5241030B8B4201D30B03C3
:1001F000C01A5241C30A8B4201D3CB02C01A5241EA
:10020000830A8B4201D38B02C01A5241430A8B42AC
:1002100001D34B02C01A5241030A8B4201D30B0295
:10022000C01A5241CDD2C3098B4201D3CB01C01AAF
:10023000524183098B4201D38B01C01A52414309B9
:100240008B4201D34B01C01A524103098B4201D3A7
:100250000B01C01A5241C3088B4201D3CB00C01A14
:10026000524183088B4201D38B00C01A524143088C
:100270008B4201D34B00C01A5241411A00D20146B1
:10028000524110467047FFE701B5002000F006F824
:1002900002BDC0460029F7D076E770477047C046D8
:1002A00010B500F093F8034A034B80214902D15066
:1002B000F9E7C04600000A40B0120000FEE7000067
:1002C00010B50F4B0F4A01E002CA02C30E498B4220
:1002D000FAD30E4B0E4A01E002CA02C30D498B420B
:1002E000FAD30D4B01E0002204C30C4A9342FAD327
:1002F00000F090F8FFF7D4FFFFF7E0FF10BDC04615
:10030000C0002020A804000028012020C0002020D8
:1003100090040000C0002020280120204801202057
:1003200010B50748074B0849C150084AD150043B53
:100330000749C150D150102000F050F810BDC04600
:1003400000000A4004080000030000B100200A4039
:1003500001000026064A98238121D150054B8022B6
:100360005202952149015A5003495A507047C046DC
:100370000080424000000A40D01200000D4B0E4A9F
:10038000002199500D490A68032082430A600C4AF3
:10039000995802388143995099580A480140995018
:1003A000094B1A6830218A431A601A6821398A4336
:1003B0001A60704700F00A400813000000010B406B
:1003C00008110000FFFEFFFF04010B4010B5FFF70E
:1003D000A7FFFFF7BFFFFFF7D1FF10BD831E043B50
:1003E000C046FCD270470000084B10B50400002B3B
:1003F00002D0002100E000BF054B1868836A002B83
:1004000000D09847200000F031F8C04600000000FE
:100410009004000070B500260C4D0D4C641BA41018
:10042000A64209D1002600F023F80A4D0A4C641BAD
:10043000A410A64205D170BDB300EB589847013611
:10044000EEE7B300EB5898470136F2E79804000056
:1004500098040000980400009C0400000300821827
:10046000934200D1704719700133F9E7FEE7C046A7
:10047000F8B5C046F8BC08BC9E46704700000000B6
:10048000F8B5C046C1000000F8BC08BC9E467047E5
:08049000C8002020000000005C
:04049800E900000077
:0804A00068FCFF7F0100000071
:1004A80000000000C800202000000000000000003C
:1004B8000000000000000000000000000000000034
:1004C8000000000000000000000000000000000024
:1004D8000000000000000000000000000000000014
:1004E8000000000000000000000000000000000004
:1004F80000000000000000000000000000000000F4
:080508000000000000000000EB
:04000003000000C039
:00000001FF
